:020000040801F1
:10000000C01200200D0201081502010817020108A4
:10001000190201081B0201081D020108000000006E
:100020000000000000000000000000001F020108A6
:100030002102010800000000230201082502010836
:1000400027020108270201082702010827020108E8
:1000500027020108270201082702010827020108D8
:1000600027020108270201082702010827020108C8
:1000700027020108270201082702010827020108B8
:1000800027020108270201082702010827020108A8
:100090002702010827020108270201082702010898
:1000A0002702010827020108270201082702010888
:1000B0002702010827020108270201082702010878
:1000C0002702010827020108270201082702010868
:1000D000270201083104010827020108270201084C
:1000E0002702010827020108270201082702010848
:1000F0002702010827020108270201082702010838
:100100002702010827020108270201082702010827
:100110002702010827020108270201082702010817
:100120002702010827020108270201082702010807
:1001300027020108270201082702010827020108F7
:1001400027020108270201082702010827020108E7
:1001500027020108270201082702010827020108D7
:1001600027020108270201082702010827020108C7
:1001700027020108270201082702010827020108B7
:10018000270201082702010800F002F800F02EF80B
:100190000AA090E8000C82448344AAF10107DA45E2
:1001A00001D100F023F8AFF2090EBAE80F0013F006
:1001B000010F18BFFB1A43F0010318479C0300000E
:1001C000AC0300000023002400250026103A28BFBD
:1001D00078C1FBD8520728BF30C148BF0B607047B9
:1001E0001FB500F0B3F91FBD10B510BD00F031F818
:1001F0001146FFF7F5FF00F0A7F900F04FF803B440
:10020000FFF7F2FF03BC00F09DF9000009488047AA
:1002100009480047FEE7FEE7FEE7FEE7FEE7FEE7E8
:10022000FEE7FEE7FEE7FEE704480549054A064B00
:1002300070470000C903010889010108C0080020B7
:10024000C0120020C00A0020C00A0020704770477A
:100250007047754600F02CF8AE46050069465346D7
:1002600020F00700854618B020B5FFF7DDFFBDE898
:1002700020404FF000064FF000074FF000084FF00D
:10028000000B21F00701AC46ACE8C009ACE8C0099E
:10029000ACE8C009ACE8C0098D46704710B504460B
:1002A000AFF300802046BDE81040FFF7A8BF000074
:1002B000004870476008002021B1026842F0010246
:1002C000026003E0026822F001020260704701460A
:1002D000486880B270474160704700000CB500204C
:1002E000019000903448006840F480303249086042
:1002F00000BF3148006800F4003000900198401CB5
:100300000190009818B90198B0F5A04FF1D12A4892
:10031000006800F4003010B10120009001E00020DE
:1003200000900098012846D123484030006840F0F2
:1003300080502149403108602048006840F4404026
:100340001E4908601C48083000681B4908310860D5
:100350000846006840F4004008600846006840F421
:10036000A05008601648091F0860081F006840F088
:100370008070091F086000BF0F48006800F000701F
:100380000028F9D040F205700E4908600A4808308C
:10039000006820F00300084908310860084600683A
:1003A00040F00200086000BF03480830006800F019
:1003B0000C000828F8D10CBD003802400070004045
:1003C00008544007003C024010B51548006840F44E
:1003D0007000134908601348006840F0010011499B
:1003E000086000200F49083108600E4800680E4977
:1003F00008400C4908600D48091D0860081F006886
:1004000020F48020091F0860002006490C31086094
:10041000FFF764FF4FF0006001498039086010BDAC
:1004200088ED00E000380240FFFFF6FE10300024A7
:1004300010B540F224412A4800F05AF801284DD165
:1004400027480088264880882648FFF740FF40F26A
:100450000111081A244909880844234908800846DC
:100460000088401E214908441F49496D48601E48C4
:10047000406D08301C4948650846406DC96D88428A
:1004800003D11948001D011F486517480088C0F5B1
:100490000060B0F5807F07DD1348008813490844E9
:1004A0001149496D086006E010480F49496D086020
:1004B00000200D49088000210A48FFF7FDFE40F2A8
:1004C00001110848FFF707FF0748406D006805491C
:1004D0000C31086001210348FFF7EEFE10BD00005B
:1004E000001001404064024000080020000000208D
:1004F00070B50246002400230025002040F66A164D
:10050000B14200D100BFC1F3421501F01F03012623
:1005100006FA03F3012D02D19689334006E0022D3D
:1005200002D1168A334001E0968A33400C1201262C
:1005300006FA04F41688344013B10CB1012000E02F
:10054000002070BD00BF704700BFFEE74FF0407055
:10055000E1EE100A70470000680501080000002065
:08056000C0120000C4010108F3
:040000050801018964
:00000001FF
